{
  "abi": [
    {
      "inputs": [
        {
          "internalType": "address",
          "name": "_splitMain",
          "type": "address"
        },
        {
          "internalType": "address[]",
          "name": "accounts",
          "type": "address[]"
        },
        {
          "internalType": "uint32[]",
          "name": "initAllocations",
          "type": "uint32[]"
        },
        {
          "internalType": "uint32",
          "name": "_distributorFee",
          "type": "uint32"
        }
      ],
      "stateMutability": "nonpayable",
      "type": "constructor"
    },
    {
      "inputs": [
        {
          "internalType": "uint256",
          "name": "accountsLength",
          "type": "uint256"
        },
        {
          "internalType": "uint256",
          "name": "allocationsLength",
          "type": "uint256"
        }
      ],
      "name": "InvalidLiquidSplit__AccountsAndAllocationsMismatch",
      "type": "error"
    },
    {
      "inputs": [
        {
          "internalType": "uint32",
          "name": "allocationsSum",
          "type": "uint32"
        }
      ],
      "name": "InvalidLiquidSplit__InvalidAllocationsSum",
      "type": "error"
    },
    {
      "inputs": [
        {
          "internalType": "uint32",
          "name": "distributorFee",
          "type": "uint32"
        }
      ],
      "name": "InvalidLiquidSplit__InvalidDistributorFee",
      "type": "error"
    },
    {
      "anonymous": false,
      "inputs": [
        {
          "indexed": true,
          "internalType": "address",
          "name": "owner",
          "type": "address"
        },
        {
          "indexed": true,
          "internalType": "address",
          "name": "operator",
          "type": "address"
        },
        {
          "indexed": false,
          "internalType": "bool",
          "name": "approved",
          "type": "bool"
        }
      ],
      "name": "ApprovalForAll",
      "type": "event"
    },
    {
      "anonymous": false,
      "inputs": [],
      "name": "CreateLiquidSplit",
      "type": "event"
    },
    {
      "anonymous": false,
      "inputs": [
        {
          "indexed": false,
          "internalType": "uint256",
          "name": "amount",
          "type": "uint256"
        }
      ],
      "name": "ReceiveETH",
      "type": "event"
    },
    {
      "anonymous": false,
      "inputs": [
        {
          "indexed": true,
          "internalType": "address",
          "name": "operator",
          "type": "address"
        },
        {
          "indexed": true,
          "internalType": "address",
          "name": "from",
          "type": "address"
        },
        {
          "indexed": true,
          "internalType": "address",
          "name": "to",
          "type": "address"
        },
        {
          "indexed": false,
          "internalType": "uint256[]",
          "name": "ids",
          "type": "uint256[]"
        },
        {
          "indexed": false,
          "internalType": "uint256[]",
          "name": "amounts",
          "type": "uint256[]"
        }
      ],
      "name": "TransferBatch",
      "type": "event"
    },
    {
      "anonymous": false,
      "inputs": [
        {
          "indexed": true,
          "internalType": "address",
          "name": "operator",
          "type": "address"
        },
        {
          "indexed": true,
          "internalType": "address",
          "name": "from",
          "type": "address"
        },
        {
          "indexed": true,
          "internalType": "address",
          "name": "to",
          "type": "address"
        },
        {
          "indexed": false,
          "internalType": "uint256",
          "name": "id",
          "type": "uint256"
        },
        {
          "indexed": false,
          "internalType": "uint256",
          "name": "amount",
          "type": "uint256"
        }
      ],
      "name": "TransferSingle",
      "type": "event"
    },
    {
      "anonymous": false,
      "inputs": [
        {
          "indexed": false,
          "internalType": "string",
          "name": "value",
          "type": "string"
        },
        {
          "indexed": true,
          "internalType": "uint256",
          "name": "id",
          "type": "uint256"
        }
      ],
      "name": "URI",
      "type": "event"
    },
    {
      "inputs": [],
      "name": "MAX_DISTRIBUTOR_FEE",
      "outputs": [
        {
          "internalType": "uint256",
          "name": "",
          "type": "uint256"
        }
      ],
      "stateMutability": "view",
      "type": "function"
    },
    {
      "inputs": [],
      "name": "PERCENTAGE_SCALE",
      "outputs": [
        {
          "internalType": "uint256",
          "name": "",
          "type": "uint256"
        }
      ],
      "stateMutability": "view",
      "type": "function"
    },
    {
      "inputs": [],
      "name": "SUPPLY_TO_PERCENTAGE",
      "outputs": [
        {
          "internalType": "uint256",
          "name": "",
          "type": "uint256"
        }
      ],
      "stateMutability": "view",
      "type": "function"
    },
    {
      "inputs": [],
      "name": "TOTAL_SUPPLY",
      "outputs": [
        {
          "internalType": "uint256",
          "name": "",
          "type": "uint256"
        }
      ],
      "stateMutability": "view",
      "type": "function"
    },
    {
      "inputs": [
        {
          "internalType": "address",
          "name": "",
          "type": "address"
        },
        {
          "internalType": "uint256",
          "name": "",
          "type": "uint256"
        }
      ],
      "name": "balanceOf",
      "outputs": [
        {
          "internalType": "uint256",
          "name": "",
          "type": "uint256"
        }
      ],
      "stateMutability": "view",
      "type": "function"
    },
    {
      "inputs": [
        {
          "internalType": "address[]",
          "name": "owners",
          "type": "address[]"
        },
        {
          "internalType": "uint256[]",
          "name": "ids",
          "type": "uint256[]"
        }
      ],
      "name": "balanceOfBatch",
      "outputs": [
        {
          "internalType": "uint256[]",
          "name": "balances",
          "type": "uint256[]"
        }
      ],
      "stateMutability": "view",
      "type": "function"
    },
    {
      "inputs": [
        {
          "internalType": "address",
          "name": "token",
          "type": "address"
        },
        {
          "internalType": "address[]",
          "name": "accounts",
          "type": "address[]"
        },
        {
          "internalType": "address",
          "name": "distributorAddress",
          "type": "address"
        }
      ],
      "name": "distributeFunds",
      "outputs": [],
      "stateMutability": "nonpayable",
      "type": "function"
    },
    {
      "inputs": [],
      "name": "distributorFee",
      "outputs": [
        {
          "internalType": "uint32",
          "name": "",
          "type": "uint32"
        }
      ],
      "stateMutability": "view",
      "type": "function"
    },
    {
      "inputs": [
        {
          "internalType": "address",
          "name": "",
          "type": "address"
        },
        {
          "internalType": "address",
          "name": "",
          "type": "address"
        }
      ],
      "name": "isApprovedForAll",
      "outputs": [
        {
          "internalType": "bool",
          "name": "",
          "type": "bool"
        }
      ],
      "stateMutability": "view",
      "type": "function"
    },
    {
      "inputs": [],
      "name": "payoutSplit",
      "outputs": [
        {
          "internalType": "address",
          "name": "",
          "type": "address"
        }
      ],
      "stateMutability": "view",
      "type": "function"
    },
    {
      "inputs": [
        {
          "internalType": "address",
          "name": "from",
          "type": "address"
        },
        {
          "internalType": "address",
          "name": "to",
          "type": "address"
        },
        {
          "internalType": "uint256[]",
          "name": "ids",
          "type": "uint256[]"
        },
        {
          "internalType": "uint256[]",
          "name": "amounts",
          "type": "uint256[]"
        },
        {
          "internalType": "bytes",
          "name": "data",
          "type": "bytes"
        }
      ],
      "name": "safeBatchTransferFrom",
      "outputs": [],
      "stateMutability": "nonpayable",
      "type": "function"
    },
    {
      "inputs": [
        {
          "internalType": "address",
          "name": "from",
          "type": "address"
        },
        {
          "internalType": "address",
          "name": "to",
          "type": "address"
        },
        {
          "internalType": "uint256",
          "name": "id",
          "type": "uint256"
        },
        {
          "internalType": "uint256",
          "name": "amount",
          "type": "uint256"
        },
        {
          "internalType": "bytes",
          "name": "data",
          "type": "bytes"
        }
      ],
      "name": "safeTransferFrom",
      "outputs": [],
      "stateMutability": "nonpayable",
      "type": "function"
    },
    {
      "inputs": [
        {
          "internalType": "address",
          "name": "operator",
          "type": "address"
        },
        {
          "internalType": "bool",
          "name": "approved",
          "type": "bool"
        }
      ],
      "name": "setApprovalForAll",
      "outputs": [],
      "stateMutability": "nonpayable",
      "type": "function"
    },
    {
      "inputs": [],
      "name": "splitMain",
      "outputs": [
        {
          "internalType": "contract ISplitMain",
          "name": "",
          "type": "address"
        }
      ],
      "stateMutability": "view",
      "type": "function"
    },
    {
      "inputs": [
        {
          "internalType": "bytes4",
          "name": "interfaceId",
          "type": "bytes4"
        }
      ],
      "name": "supportsInterface",
      "outputs": [
        {
          "internalType": "bool",
          "name": "",
          "type": "bool"
        }
      ],
      "stateMutability": "view",
      "type": "function"
    },
    {
      "inputs": [
        {
          "internalType": "uint256",
          "name": "",
          "type": "uint256"
        }
      ],
      "name": "uri",
      "outputs": [
        {
          "internalType": "string",
          "name": "",
          "type": "string"
        }
      ],
      "stateMutability": "pure",
      "type": "function"
    },
    {
      "stateMutability": "payable",
      "type": "receive"
    }
  ],
  "bytecode": {
    "object": "0x60e06040523480156200001157600080fd5b5060405162001f6c38038062001f6c833981016040819052620000349162000626565b8381620186a08163ffffffff1611156200006e57604051634a1fd52d60e01b815263ffffffff821660048201526024015b60405180910390fd5b6001600160a01b03821660805263ffffffff811660a052604080516002808252606082018352600092602083019080368337019050509050600081600081518110620000be57620000be6200071d565b60200260200101906001600160a01b031690816001600160a01b031681525050600181600181518110620000f657620000f66200071d565b6001600160a01b039290921660209283029190910182015260408051600280825260608201835260009391929091830190803683370190505090506207a120816000815181106200014b576200014b6200071d565b602002602001019063ffffffff16908163ffffffff16815250506207a120816001815181106200017f576200017f6200071d565b602002602001019063ffffffff16908163ffffffff16815250506080516001600160a01b0316637601f78283836000306040518563ffffffff1660e01b8152600401620001d0949392919062000733565b6020604051808303816000875af1158015620001f0573d6000803e3d6000fd5b505050506040513d601f19601f82011682018060405250810190620002169190620007e5565b6001600160a01b031660c0526040517fbe702728bca9b2feae24e9a0c9ea96072d4d11c8895f69b5eecf4e114049b4c890600090a15050505081518351146200028057825182516040516335389da760e11b81526004810192909252602482015260440162000065565b60006200028d8362000347565b90506103e88163ffffffff1614620002c157604051638692155560e01b815263ffffffff8216600482015260240162000065565b50825160005b818110156200033b5762000332858281518110620002e957620002e96200071d565b602002602001015160008684815181106200030857620003086200071d565b602002602001015163ffffffff16604051806020016040528060008152506200039360201b60201c565b600101620002c7565b50505050505062000909565b8051600090815b818110156200038c578381815181106200036c576200036c6200071d565b60200260200101518362000381919062000820565b92506001016200034e565b5050919050565b6001600160a01b03841660009081526020818152604080832086845290915281208054849290620003c690849062000847565b909155505060408051848152602081018490526001600160a01b0386169160009133917fc3d58168c5ae7397731d063d5bbf3d657854427343f4c083240f7aacaa2d0f62910160405180910390a46001600160a01b0384163b15620004b55760405163f23a6e6160e01b808252906001600160a01b0386169063f23a6e61906200045e90339060009089908990899060040162000863565b6020604051808303816000875af11580156200047e573d6000803e3d6000fd5b505050506040513d601f19601f82011682018060405250810190620004a49190620008dd565b6001600160e01b03191614620004c2565b6001600160a01b03841615155b620005035760405162461bcd60e51b815260206004820152601060248201526f155394d0519157d49150d2541251539560821b604482015260640162000065565b50505050565b80516001600160a01b03811681146200052157600080fd5b919050565b634e487b7160e01b600052604160045260246000fd5b604051601f8201601f191681016001600160401b038111828210171562000567576200056762000526565b604052919050565b60006001600160401b038211156200058b576200058b62000526565b5060051b60200190565b805163ffffffff811681146200052157600080fd5b600082601f830112620005bc57600080fd5b81516020620005d5620005cf836200056f565b6200053c565b82815260059290921b84018101918181019086841115620005f557600080fd5b8286015b848110156200061b576200060d8162000595565b8352918301918301620005f9565b509695505050505050565b600080600080608085870312156200063d57600080fd5b620006488562000509565b602086810151919550906001600160401b03808211156200066857600080fd5b818801915088601f8301126200067d57600080fd5b81516200068e620005cf826200056f565b81815260059190911b8301840190848101908b831115620006ae57600080fd5b938501935b82851015620006d757620006c78562000509565b82529385019390850190620006b3565b60408b01519098509450505080831115620006f157600080fd5b50506200070187828801620005aa565b925050620007126060860162000595565b905092959194509250565b634e487b7160e01b600052603260045260246000fd5b6080808252855190820181905260009060209060a0840190828901845b82811015620007775781516001600160a01b03168452928401929084019060010162000750565b5050508381038285015286518082528783019183019060005b81811015620007b457835163ffffffff168352928401929184019160010162000790565b505063ffffffff871660408601529250620007cd915050565b6001600160a01b038316606083015295945050505050565b600060208284031215620007f857600080fd5b620008038262000509565b9392505050565b634e487b7160e01b600052601160045260246000fd5b63ffffffff8181168382160190808211156200084057620008406200080a565b5092915050565b808201808211156200085d576200085d6200080a565b92915050565b600060018060a01b03808816835260208188168185015286604085015285606085015260a06080850152845191508160a085015260005b82811015620008b85785810182015185820160c0015281016200089a565b5050600060c0828501015260c0601f19601f8301168401019150509695505050505050565b600060208284031215620008f057600080fd5b81516001600160e01b0319811681146200080357600080fd5b60805160a05160c0516115fb62000971600039600081816102cd0152818161099801528181610a0201528181610aa40152610b6e01526000818161035801528181610a2a0152610b980152600081816101bf015281816109d50152610b4101526115fb6000f3fe6080604052600436106100f65760003560e01c8063902d55a51161008a578063d3561ecd11610059578063d3561ecd14610326578063dbf32be514610346578063e985e9c51461038f578063f242432a146103ca57600080fd5b8063902d55a5146102a5578063a12df0e7146102bb578063a22cb465146102ef578063b98ebf5e1461030f57600080fd5b80632eb2c2d6116100c65780632eb2c2d61461023f5780633f26479e146102615780634e1273f41461027857806383c9ff31146102a557600080fd5b8062fdd58e1461013557806301ffc9a71461017d5780630e769b2b146101ad5780630e89341c146101f957600080fd5b36610130576040513481527f9e4ac34f21c619cefc926c8bd93b54bf5a39c7ab2127a895af1cc0691d7e3dff9060200160405180910390a1005b600080fd5b34801561014157600080fd5b5061016a610150366004610e8d565b600060208181529281526040808220909352908152205481565b6040519081526020015b60405180910390f35b34801561018957600080fd5b5061019d610198366004610ed0565b6103ea565b6040519015158152602001610174565b3480156101b957600080fd5b506101e17f000000000000000000000000000000000000000000000000000000000000000081565b6040516001600160a01b039091168152602001610174565b34801561020557600080fd5b50610232610214366004610ef4565b5060408051808201909152600381526275726960e81b602082015290565b6040516101749190610f0d565b34801561024b57600080fd5b5061025f61025a366004610fe9565b61043c565b005b34801561026d57600080fd5b5061016a620f424081565b34801561028457600080fd5b506102986102933660046110a4565b610707565b6040516101749190611110565b3480156102b157600080fd5b5061016a6103e881565b3480156102c757600080fd5b506101e17f000000000000000000000000000000000000000000000000000000000000000081565b3480156102fb57600080fd5b5061025f61030a366004611154565b61083c565b34801561031b57600080fd5b5061016a620186a081565b34801561033257600080fd5b5061025f610341366004611190565b6108a8565b34801561035257600080fd5b5061037a7f000000000000000000000000000000000000000000000000000000000000000081565b60405163ffffffff9091168152602001610174565b34801561039b57600080fd5b5061019d6103aa3660046111f5565b600160209081526000928352604080842090915290825290205460ff1681565b3480156103d657600080fd5b5061025f6103e5366004611228565b610bf8565b60006301ffc9a760e01b6001600160e01b03198316148061041b5750636cdb3d1360e11b6001600160e01b03198316145b8061043657506303a24d0760e21b6001600160e01b03198316145b92915050565b8483146104825760405162461bcd60e51b815260206004820152600f60248201526e0988a9c8ea890be9a92a69a82a8869608b1b60448201526064015b60405180910390fd5b336001600160a01b03891614806104bc57506001600160a01b038816600090815260016020908152604080832033845290915290205460ff165b6104f95760405162461bcd60e51b815260206004820152600e60248201526d1393d517d055551213d49256915160921b6044820152606401610479565b60008060005b878110156105b457888882818110610519576105196112a0565b905060200201359250868682818110610534576105346112a0565b6001600160a01b038e16600090815260208181526040808320898452825282208054939091029490940135955085939250906105719084906112cc565b90915550506001600160a01b038a16600090815260208181526040808320868452909152812080548492906105a79084906112df565b90915550506001016104ff565b50886001600160a01b03168a6001600160a01b0316336001600160a01b03167f4a39dc06d4c0dbc64b70af90fd698a233a518aa5d07e595d983b8c0526c8f7fb8b8b8b8b6040516106089493929190611324565b60405180910390a46001600160a01b0389163b156106af5760405163bc197c8160e01b808252906001600160a01b038b169063bc197c819061065c9033908f908e908e908e908e908e908e9060040161137f565b6020604051808303816000875af115801561067b573d6000803e3d6000fd5b505050506040513d601f19601f8201168201806040525081019061069f91906113e3565b6001600160e01b031916146106bc565b6001600160a01b03891615155b6106fb5760405162461bcd60e51b815260206004820152601060248201526f155394d0519157d49150d2541251539560821b6044820152606401610479565b50505050505050505050565b606083821461074a5760405162461bcd60e51b815260206004820152600f60248201526e0988a9c8ea890be9a92a69a82a8869608b1b6044820152606401610479565b8367ffffffffffffffff81111561076357610763611400565b60405190808252806020026020018201604052801561078c578160200160208202803683370190505b50905060005b84811015610833576000808787848181106107af576107af6112a0565b90506020020160208101906107c49190611416565b6001600160a01b03166001600160a01b0316815260200190815260200160002060008585848181106107f8576107f86112a0565b90506020020135815260200190815260200160002054828281518110610820576108206112a0565b6020908102919091010152600101610792565b50949350505050565b3360008181526001602090815260408083206001600160a01b03871680855290835292819020805460ff191686151590811790915590519081529192917f17307eab39ab6107e8899845ad3d59bd9653f200f220920489ca2b5937696c31910160405180910390a35050565b8160008167ffffffffffffffff8111156108c4576108c4611400565b6040519080825280602002602001820160405280156108ed578160200160208202803683370190505b50905060005b8281101561097c5761094d868683818110610910576109106112a0565b90506020020160208101906109259190611416565b6001600160a01b03166000908152602081815260408083208380529091529020546103e80290565b82828151811061095f5761095f6112a0565b63ffffffff909216602092830291909101909101526001016108f3565b506001600160a01b038616610a8b576109be6001600160a01b037f00000000000000000000000000000000000000000000000000000000000000001647610e0d565b6040516352f1c84f60e11b81526001600160a01b037f0000000000000000000000000000000000000000000000000000000000000000169063a5e3909e90610a54907f0000000000000000000000000000000000000000000000000000000000000000908990899087907f0000000000000000000000000000000000000000000000000000000000000000908b906004016114ae565b600060405180830381600087803b158015610a6e57600080fd5b505af1158015610a82573d6000803e3d6000fd5b50505050610bf0565b6040516370a0823160e01b8152306004820152610b2a907f0000000000000000000000000000000000000000000000000000000000000000906001600160a01b038916906370a0823190602401602060405180830381865afa158015610af5573d6000803e3d6000fd5b505050506040513d601f19601f82011682018060405250810190610b199190611505565b6001600160a01b0389169190610e2d565b6040516377b1e4e960e01b81526001600160a01b037f000000000000000000000000000000000000000000000000000000000000000016906377b1e4e990610bc2907f0000000000000000000000000000000000000000000000000000000000000000908a908a908a9088907f0000000000000000000000000000000000000000000000000000000000000000908c9060040161151e565b600060405180830381600087803b158015610bdc57600080fd5b505af11580156106fb573d6000803e3d6000fd5b505050505050565b336001600160a01b0387161480610c3257506001600160a01b038616600090815260016020908152604080832033845290915290205460ff165b610c6f5760405162461bcd60e51b815260206004820152600e60248201526d1393d517d055551213d49256915160921b6044820152606401610479565b6001600160a01b03861660009081526020818152604080832087845290915281208054859290610ca09084906112cc565b90915550506001600160a01b03851660009081526020818152604080832087845290915281208054859290610cd69084906112df565b909155505060408051858152602081018590526001600160a01b03808816929089169133917fc3d58168c5ae7397731d063d5bbf3d657854427343f4c083240f7aacaa2d0f62910160405180910390a46001600160a01b0385163b15610dc15760405163f23a6e6160e01b808252906001600160a01b0387169063f23a6e6190610d6e9033908b908a908a908a908a9060040161157e565b6020604051808303816000875af1158015610d8d573d6000803e3d6000fd5b505050506040513d601f19601f82011682018060405250810190610db191906113e3565b6001600160e01b03191614610dce565b6001600160a01b03851615155b610bf05760405162461bcd60e51b815260206004820152601060248201526f155394d0519157d49150d2541251539560821b6044820152606401610479565b60008060008084865af1610e295763b12d13eb6000526004601cfd5b5050565b60405163a9059cbb6000528260205281604052602060006044601c6000885af13d156001600051141716610e69576390b8ec186000526004601cfd5b604052505050565b80356001600160a01b0381168114610e8857600080fd5b919050565b60008060408385031215610ea057600080fd5b610ea983610e71565b946020939093013593505050565b6001600160e01b031981168114610ecd57600080fd5b50565b600060208284031215610ee257600080fd5b8135610eed81610eb7565b9392505050565b600060208284031215610f0657600080fd5b5035919050565b600060208083528351808285015260005b81811015610f3a57858101830151858201604001528201610f1e565b506000604082860101526040601f19601f8301168501019250505092915050565b60008083601f840112610f6d57600080fd5b50813567ffffffffffffffff811115610f8557600080fd5b6020830191508360208260051b8501011115610fa057600080fd5b9250929050565b60008083601f840112610fb957600080fd5b50813567ffffffffffffffff811115610fd157600080fd5b602083019150836020828501011115610fa057600080fd5b60008060008060008060008060a0898b03121561100557600080fd5b61100e89610e71565b975061101c60208a01610e71565b9650604089013567ffffffffffffffff8082111561103957600080fd5b6110458c838d01610f5b565b909850965060608b013591508082111561105e57600080fd5b61106a8c838d01610f5b565b909650945060808b013591508082111561108357600080fd5b506110908b828c01610fa7565b999c989b5096995094979396929594505050565b600080600080604085870312156110ba57600080fd5b843567ffffffffffffffff808211156110d257600080fd5b6110de88838901610f5b565b909650945060208701359150808211156110f757600080fd5b5061110487828801610f5b565b95989497509550505050565b6020808252825182820181905260009190848201906040850190845b818110156111485783518352928401929184019160010161112c565b50909695505050505050565b6000806040838503121561116757600080fd5b61117083610e71565b91506020830135801515811461118557600080fd5b809150509250929050565b600080600080606085870312156111a657600080fd5b6111af85610e71565b9350602085013567ffffffffffffffff8111156111cb57600080fd5b6111d787828801610f5b565b90945092506111ea905060408601610e71565b905092959194509250565b6000806040838503121561120857600080fd5b61121183610e71565b915061121f60208401610e71565b90509250929050565b60008060008060008060a0878903121561124157600080fd5b61124a87610e71565b955061125860208801610e71565b94506040870135935060608701359250608087013567ffffffffffffffff81111561128257600080fd5b61128e89828a01610fa7565b979a9699509497509295939492505050565b634e487b7160e01b600052603260045260246000fd5b634e487b7160e01b600052601160045260246000fd5b81810381811115610436576104366112b6565b80820180821115610436576104366112b6565b81835260006001600160fb1b0383111561130b57600080fd5b8260051b80836020870137939093016020019392505050565b6040815260006113386040830186886112f2565b828103602084015261134b8185876112f2565b979650505050505050565b81835281816020850137506000828201602090810191909152601f909101601f19169091010190565b6001600160a01b0389811682528816602082015260a0604082018190526000906113ac908301888a6112f2565b82810360608401526113bf8187896112f2565b905082810360808401526113d4818587611356565b9b9a5050505050505050505050565b6000602082840312156113f557600080fd5b8151610eed81610eb7565b634e487b7160e01b600052604160045260246000fd5b60006020828403121561142857600080fd5b610eed82610e71565b8183526000602080850194508260005b8581101561146d576001600160a01b0361145a83610e71565b1687529582019590820190600101611441565b509495945050505050565b600081518084526020808501945080840160005b8381101561146d57815163ffffffff168752958201959082019060010161148c565b600060018060a01b03808916835260a060208401526114d160a08401888a611431565b83810360408501526114e38188611478565b63ffffffff969096166060850152509290921660809091015250949350505050565b60006020828403121561151757600080fd5b5051919050565b600060018060a01b03808a168352808916602084015260c0604084015261154960c08401888a611431565b838103606085015261155b8188611478565b63ffffffff969096166080850152509290921660a0909101525095945050505050565b6001600160a01b03878116825286166020820152604081018590526060810184905260a0608082018190526000906115b99083018486611356565b9897505050505050505056fea264697066735822122014490f3df7e0ce671d804a9a4da83605f0109e4cd833b5794327f41ce21e8c7d64736f6c63430008110033",
    "linkReferences": {}
  },
  "methodIdentifiers": {
    "MAX_DISTRIBUTOR_FEE()": "b98ebf5e",
    "PERCENTAGE_SCALE()": "3f26479e",
    "SUPPLY_TO_PERCENTAGE()": "83c9ff31",
    "TOTAL_SUPPLY()": "902d55a5",
    "balanceOf(address,uint256)": "00fdd58e",
    "balanceOfBatch(address[],uint256[])": "4e1273f4",
    "distributeFunds(address,address[],address)": "d3561ecd",
    "distributorFee()": "dbf32be5",
    "isApprovedForAll(address,address)": "e985e9c5",
    "payoutSplit()": "a12df0e7",
    "safeBatchTransferFrom(address,address,uint256[],uint256[],bytes)": "2eb2c2d6",
    "safeTransferFrom(address,address,uint256,uint256,bytes)": "f242432a",
    "setApprovalForAll(address,bool)": "a22cb465",
    "splitMain()": "0e769b2b",
    "supportsInterface(bytes4)": "01ffc9a7",
    "uri(uint256)": "0e89341c"
  },
  "id": 16
}