{
  "abi": [
    {
      "inputs": [
        {
          "internalType": "address",
          "name": "_splitMain",
          "type": "address"
        }
      ],
      "stateMutability": "nonpayable",
      "type": "constructor"
    },
    {
      "anonymous": false,
      "inputs": [
        {
          "indexed": true,
          "internalType": "contract LS1155",
          "name": "ls",
          "type": "address"
        }
      ],
      "name": "CreateLS1155",
      "type": "event"
    },
    {
      "anonymous": false,
      "inputs": [
        {
          "indexed": true,
          "internalType": "contract LS1155CloneImpl",
          "name": "ls",
          "type": "address"
        }
      ],
      "name": "CreateLS1155Clone",
      "type": "event"
    },
    {
      "inputs": [
        {
          "internalType": "address[]",
          "name": "accounts",
          "type": "address[]"
        },
        {
          "internalType": "uint32[]",
          "name": "initAllocations",
          "type": "uint32[]"
        },
        {
          "internalType": "uint32",
          "name": "_distributorFee",
          "type": "uint32"
        }
      ],
      "name": "createLiquidSplit",
      "outputs": [
        {
          "internalType": "contract LS1155",
          "name": "ls",
          "type": "address"
        }
      ],
      "stateMutability": "nonpayable",
      "type": "function"
    },
    {
      "inputs": [
        {
          "internalType": "address[]",
          "name": "accounts",
          "type": "address[]"
        },
        {
          "internalType": "uint32[]",
          "name": "initAllocations",
          "type": "uint32[]"
        },
        {
          "internalType": "uint32",
          "name": "_distributorFee",
          "type": "uint32"
        }
      ],
      "name": "createLiquidSplitClone",
      "outputs": [
        {
          "internalType": "contract LS1155CloneImpl",
          "name": "ls",
          "type": "address"
        }
      ],
      "stateMutability": "nonpayable",
      "type": "function"
    },
    {
      "inputs": [],
      "name": "ls1155CloneImpl",
      "outputs": [
        {
          "internalType": "address",
          "name": "",
          "type": "address"
        }
      ],
      "stateMutability": "view",
      "type": "function"
    },
    {
      "inputs": [],
      "name": "splitMain",
      "outputs": [
        {
          "internalType": "address",
          "name": "",
          "type": "address"
        }
      ],
      "stateMutability": "view",
      "type": "function"
    }
  ],
  "bytecode": {
    "object": "0x60c060405234801561001057600080fd5b506040516142c23803806142c283398101604081905261002f91610096565b6001600160a01b038116608052604051819061004a90610089565b6001600160a01b039091168152602001604051809103906000f080158015610076573d6000803e3d6000fd5b506001600160a01b031660a052506100c6565b611bad8061271583390190565b6000602082840312156100a857600080fd5b81516001600160a01b03811681146100bf57600080fd5b9392505050565b60805160a05161261e6100f76000396000818160b80152610109015260008181605d01526101e8015261261e6000f3fe60806040523480156200001157600080fd5b5060043610620000525760003560e01c80630e769b2b146200005757806337f2d622146200009b57806353b2d55614620000b2578063a4aa1aad14620000da575b600080fd5b6200007f7f000000000000000000000000000000000000000000000000000000000000000081565b6040516001600160a01b03909116815260200160405180910390f35b6200007f620000ac3660046200047e565b620000f1565b6200007f7f000000000000000000000000000000000000000000000000000000000000000081565b6200007f620000eb3660046200047e565b620001e4565b600062000140604051806020016040528060008152507f00000000000000000000000000000000000000000000000000000000000000006001600160a01b03166200028390919063ffffffff16565b6040519091506001600160a01b038216907f7b67c930b8d64c9b3390add5552a13dd3d4996f925824fc182f5ed810c912a7690600090a26040516314a402ad60e31b81526001600160a01b0382169063a520156890620001a990879087908790600401620005ea565b600060405180830381600087803b158015620001c457600080fd5b505af1158015620001d9573d6000803e3d6000fd5b505050509392505050565b60007f0000000000000000000000000000000000000000000000000000000000000000848484604051620002189062000369565b6200022794939291906200062a565b604051809103906000f08015801562000244573d6000803e3d6000fd5b506040519091506001600160a01b038216907f0b6117a88b2a61ae45b6a0db04ca1c9ed0bad84b58c58b6cf2af1af062b9d09a90600090a29392505050565b600060608203516040830351602084035184518060208701018051600283016c5af43d3d93803e606057fd5bf3895289600d8a035278593da1005b363d3d373d3d3d3d610000806062363936013d738160481b1760218a03527f9e4ac34f21c619cefc926c8bd93b54bf5a39c7ab2127a895af1cc0691d7e3dff603a8a0352716100003d81600a3d39f336602c57343d527f6062820160781b17605a8a03528060f01b8352606c8101604c8a036000f0975050866200034a5763301164256000526004601cfd5b90528552601f19850152603f19840152605f1990920191909152919050565b611f6c806200067d83390190565b634e487b7160e01b600052604160045260246000fd5b604051601f8201601f1916810167ffffffffffffffff81118282101715620003b957620003b962000377565b604052919050565b600067ffffffffffffffff821115620003de57620003de62000377565b5060051b60200190565b803563ffffffff81168114620003fd57600080fd5b919050565b600082601f8301126200041457600080fd5b813560206200042d6200042783620003c1565b6200038d565b82815260059290921b840181019181810190868411156200044d57600080fd5b8286015b8481101562000473576200046581620003e8565b835291830191830162000451565b509695505050505050565b6000806000606084860312156200049457600080fd5b833567ffffffffffffffff80821115620004ad57600080fd5b818601915086601f830112620004c257600080fd5b81356020620004d56200042783620003c1565b82815260059290921b8401810191818101908a841115620004f557600080fd5b948201945b838610156200052c5785356001600160a01b03811681146200051c5760008081fd5b82529482019490820190620004fa565b975050870135925050808211156200054357600080fd5b50620005528682870162000402565b9250506200056360408501620003e8565b90509250925092565b600081518084526020808501945080840160005b83811015620005a75781516001600160a01b03168752958201959082019060010162000580565b509495945050505050565b600081518084526020808501945080840160005b83811015620005a757815163ffffffff1687529582019590820190600101620005c6565b606081526000620005ff60608301866200056c565b8281036020840152620006138186620005b2565b91505063ffffffff83166040830152949350505050565b6001600160a01b038516815260806020820181905260009062000650908301866200056c565b8281036040840152620006648186620005b2565b91505063ffffffff831660608301529594505050505056fe60e06040523480156200001157600080fd5b5060405162001f6c38038062001f6c833981016040819052620000349162000626565b8381620186a08163ffffffff1611156200006e57604051634a1fd52d60e01b815263ffffffff821660048201526024015b60405180910390fd5b6001600160a01b03821660805263ffffffff811660a052604080516002808252606082018352600092602083019080368337019050509050600081600081518110620000be57620000be6200071d565b60200260200101906001600160a01b031690816001600160a01b031681525050600181600181518110620000f657620000f66200071d565b6001600160a01b039290921660209283029190910182015260408051600280825260608201835260009391929091830190803683370190505090506207a120816000815181106200014b576200014b6200071d565b602002602001019063ffffffff16908163ffffffff16815250506207a120816001815181106200017f576200017f6200071d565b602002602001019063ffffffff16908163ffffffff16815250506080516001600160a01b0316637601f78283836000306040518563ffffffff1660e01b8152600401620001d0949392919062000733565b6020604051808303816000875af1158015620001f0573d6000803e3d6000fd5b505050506040513d601f19601f82011682018060405250810190620002169190620007e5565b6001600160a01b031660c0526040517fbe702728bca9b2feae24e9a0c9ea96072d4d11c8895f69b5eecf4e114049b4c890600090a15050505081518351146200028057825182516040516335389da760e11b81526004810192909252602482015260440162000065565b60006200028d8362000347565b90506103e88163ffffffff1614620002c157604051638692155560e01b815263ffffffff8216600482015260240162000065565b50825160005b818110156200033b5762000332858281518110620002e957620002e96200071d565b602002602001015160008684815181106200030857620003086200071d565b602002602001015163ffffffff16604051806020016040528060008152506200039360201b60201c565b600101620002c7565b50505050505062000909565b8051600090815b818110156200038c578381815181106200036c576200036c6200071d565b60200260200101518362000381919062000820565b92506001016200034e565b5050919050565b6001600160a01b03841660009081526020818152604080832086845290915281208054849290620003c690849062000847565b909155505060408051848152602081018490526001600160a01b0386169160009133917fc3d58168c5ae7397731d063d5bbf3d657854427343f4c083240f7aacaa2d0f62910160405180910390a46001600160a01b0384163b15620004b55760405163f23a6e6160e01b808252906001600160a01b0386169063f23a6e61906200045e90339060009089908990899060040162000863565b6020604051808303816000875af11580156200047e573d6000803e3d6000fd5b505050506040513d601f19601f82011682018060405250810190620004a49190620008dd565b6001600160e01b03191614620004c2565b6001600160a01b03841615155b620005035760405162461bcd60e51b815260206004820152601060248201526f155394d0519157d49150d2541251539560821b604482015260640162000065565b50505050565b80516001600160a01b03811681146200052157600080fd5b919050565b634e487b7160e01b600052604160045260246000fd5b604051601f8201601f191681016001600160401b038111828210171562000567576200056762000526565b604052919050565b60006001600160401b038211156200058b576200058b62000526565b5060051b60200190565b805163ffffffff811681146200052157600080fd5b600082601f830112620005bc57600080fd5b81516020620005d5620005cf836200056f565b6200053c565b82815260059290921b84018101918181019086841115620005f557600080fd5b8286015b848110156200061b576200060d8162000595565b8352918301918301620005f9565b509695505050505050565b600080600080608085870312156200063d57600080fd5b620006488562000509565b602086810151919550906001600160401b03808211156200066857600080fd5b818801915088601f8301126200067d57600080fd5b81516200068e620005cf826200056f565b81815260059190911b8301840190848101908b831115620006ae57600080fd5b938501935b82851015620006d757620006c78562000509565b82529385019390850190620006b3565b60408b01519098509450505080831115620006f157600080fd5b50506200070187828801620005aa565b925050620007126060860162000595565b905092959194509250565b634e487b7160e01b600052603260045260246000fd5b6080808252855190820181905260009060209060a0840190828901845b82811015620007775781516001600160a01b03168452928401929084019060010162000750565b5050508381038285015286518082528783019183019060005b81811015620007b457835163ffffffff168352928401929184019160010162000790565b505063ffffffff871660408601529250620007cd915050565b6001600160a01b038316606083015295945050505050565b600060208284031215620007f857600080fd5b620008038262000509565b9392505050565b634e487b7160e01b600052601160045260246000fd5b63ffffffff8181168382160190808211156200084057620008406200080a565b5092915050565b808201808211156200085d576200085d6200080a565b92915050565b600060018060a01b03808816835260208188168185015286604085015285606085015260a06080850152845191508160a085015260005b82811015620008b85785810182015185820160c0015281016200089a565b5050600060c0828501015260c0601f19601f8301168401019150509695505050505050565b600060208284031215620008f057600080fd5b81516001600160e01b0319811681146200080357600080fd5b60805160a05160c0516115fb62000971600039600081816102cd0152818161099801528181610a0201528181610aa40152610b6e01526000818161035801528181610a2a0152610b980152600081816101bf015281816109d50152610b4101526115fb6000f3fe6080604052600436106100f65760003560e01c8063902d55a51161008a578063d3561ecd11610059578063d3561ecd14610326578063dbf32be514610346578063e985e9c51461038f578063f242432a146103ca57600080fd5b8063902d55a5146102a5578063a12df0e7146102bb578063a22cb465146102ef578063b98ebf5e1461030f57600080fd5b80632eb2c2d6116100c65780632eb2c2d61461023f5780633f26479e146102615780634e1273f41461027857806383c9ff31146102a557600080fd5b8062fdd58e1461013557806301ffc9a71461017d5780630e769b2b146101ad5780630e89341c146101f957600080fd5b36610130576040513481527f9e4ac34f21c619cefc926c8bd93b54bf5a39c7ab2127a895af1cc0691d7e3dff9060200160405180910390a1005b600080fd5b34801561014157600080fd5b5061016a610150366004610e8d565b600060208181529281526040808220909352908152205481565b6040519081526020015b60405180910390f35b34801561018957600080fd5b5061019d610198366004610ed0565b6103ea565b6040519015158152602001610174565b3480156101b957600080fd5b506101e17f000000000000000000000000000000000000000000000000000000000000000081565b6040516001600160a01b039091168152602001610174565b34801561020557600080fd5b50610232610214366004610ef4565b5060408051808201909152600381526275726960e81b602082015290565b6040516101749190610f0d565b34801561024b57600080fd5b5061025f61025a366004610fe9565b61043c565b005b34801561026d57600080fd5b5061016a620f424081565b34801561028457600080fd5b506102986102933660046110a4565b610707565b6040516101749190611110565b3480156102b157600080fd5b5061016a6103e881565b3480156102c757600080fd5b506101e17f000000000000000000000000000000000000000000000000000000000000000081565b3480156102fb57600080fd5b5061025f61030a366004611154565b61083c565b34801561031b57600080fd5b5061016a620186a081565b34801561033257600080fd5b5061025f610341366004611190565b6108a8565b34801561035257600080fd5b5061037a7f000000000000000000000000000000000000000000000000000000000000000081565b60405163ffffffff9091168152602001610174565b34801561039b57600080fd5b5061019d6103aa3660046111f5565b600160209081526000928352604080842090915290825290205460ff1681565b3480156103d657600080fd5b5061025f6103e5366004611228565b610bf8565b60006301ffc9a760e01b6001600160e01b03198316148061041b5750636cdb3d1360e11b6001600160e01b03198316145b8061043657506303a24d0760e21b6001600160e01b03198316145b92915050565b8483146104825760405162461bcd60e51b815260206004820152600f60248201526e0988a9c8ea890be9a92a69a82a8869608b1b60448201526064015b60405180910390fd5b336001600160a01b03891614806104bc57506001600160a01b038816600090815260016020908152604080832033845290915290205460ff165b6104f95760405162461bcd60e51b815260206004820152600e60248201526d1393d517d055551213d49256915160921b6044820152606401610479565b60008060005b878110156105b457888882818110610519576105196112a0565b905060200201359250868682818110610534576105346112a0565b6001600160a01b038e16600090815260208181526040808320898452825282208054939091029490940135955085939250906105719084906112cc565b90915550506001600160a01b038a16600090815260208181526040808320868452909152812080548492906105a79084906112df565b90915550506001016104ff565b50886001600160a01b03168a6001600160a01b0316336001600160a01b03167f4a39dc06d4c0dbc64b70af90fd698a233a518aa5d07e595d983b8c0526c8f7fb8b8b8b8b6040516106089493929190611324565b60405180910390a46001600160a01b0389163b156106af5760405163bc197c8160e01b808252906001600160a01b038b169063bc197c819061065c9033908f908e908e908e908e908e908e9060040161137f565b6020604051808303816000875af115801561067b573d6000803e3d6000fd5b505050506040513d601f19601f8201168201806040525081019061069f91906113e3565b6001600160e01b031916146106bc565b6001600160a01b03891615155b6106fb5760405162461bcd60e51b815260206004820152601060248201526f155394d0519157d49150d2541251539560821b6044820152606401610479565b50505050505050505050565b606083821461074a5760405162461bcd60e51b815260206004820152600f60248201526e0988a9c8ea890be9a92a69a82a8869608b1b6044820152606401610479565b8367ffffffffffffffff81111561076357610763611400565b60405190808252806020026020018201604052801561078c578160200160208202803683370190505b50905060005b84811015610833576000808787848181106107af576107af6112a0565b90506020020160208101906107c49190611416565b6001600160a01b03166001600160a01b0316815260200190815260200160002060008585848181106107f8576107f86112a0565b90506020020135815260200190815260200160002054828281518110610820576108206112a0565b6020908102919091010152600101610792565b50949350505050565b3360008181526001602090815260408083206001600160a01b03871680855290835292819020805460ff191686151590811790915590519081529192917f17307eab39ab6107e8899845ad3d59bd9653f200f220920489ca2b5937696c31910160405180910390a35050565b8160008167ffffffffffffffff8111156108c4576108c4611400565b6040519080825280602002602001820160405280156108ed578160200160208202803683370190505b50905060005b8281101561097c5761094d868683818110610910576109106112a0565b90506020020160208101906109259190611416565b6001600160a01b03166000908152602081815260408083208380529091529020546103e80290565b82828151811061095f5761095f6112a0565b63ffffffff909216602092830291909101909101526001016108f3565b506001600160a01b038616610a8b576109be6001600160a01b037f00000000000000000000000000000000000000000000000000000000000000001647610e0d565b6040516352f1c84f60e11b81526001600160a01b037f0000000000000000000000000000000000000000000000000000000000000000169063a5e3909e90610a54907f0000000000000000000000000000000000000000000000000000000000000000908990899087907f0000000000000000000000000000000000000000000000000000000000000000908b906004016114ae565b600060405180830381600087803b158015610a6e57600080fd5b505af1158015610a82573d6000803e3d6000fd5b50505050610bf0565b6040516370a0823160e01b8152306004820152610b2a907f0000000000000000000000000000000000000000000000000000000000000000906001600160a01b038916906370a0823190602401602060405180830381865afa158015610af5573d6000803e3d6000fd5b505050506040513d601f19601f82011682018060405250810190610b199190611505565b6001600160a01b0389169190610e2d565b6040516377b1e4e960e01b81526001600160a01b037f000000000000000000000000000000000000000000000000000000000000000016906377b1e4e990610bc2907f0000000000000000000000000000000000000000000000000000000000000000908a908a908a9088907f0000000000000000000000000000000000000000000000000000000000000000908c9060040161151e565b600060405180830381600087803b158015610bdc57600080fd5b505af11580156106fb573d6000803e3d6000fd5b505050505050565b336001600160a01b0387161480610c3257506001600160a01b038616600090815260016020908152604080832033845290915290205460ff165b610c6f5760405162461bcd60e51b815260206004820152600e60248201526d1393d517d055551213d49256915160921b6044820152606401610479565b6001600160a01b03861660009081526020818152604080832087845290915281208054859290610ca09084906112cc565b90915550506001600160a01b03851660009081526020818152604080832087845290915281208054859290610cd69084906112df565b909155505060408051858152602081018590526001600160a01b03808816929089169133917fc3d58168c5ae7397731d063d5bbf3d657854427343f4c083240f7aacaa2d0f62910160405180910390a46001600160a01b0385163b15610dc15760405163f23a6e6160e01b808252906001600160a01b0387169063f23a6e6190610d6e9033908b908a908a908a908a9060040161157e565b6020604051808303816000875af1158015610d8d573d6000803e3d6000fd5b505050506040513d601f19601f82011682018060405250810190610db191906113e3565b6001600160e01b03191614610dce565b6001600160a01b03851615155b610bf05760405162461bcd60e51b815260206004820152601060248201526f155394d0519157d49150d2541251539560821b6044820152606401610479565b60008060008084865af1610e295763b12d13eb6000526004601cfd5b5050565b60405163a9059cbb6000528260205281604052602060006044601c6000885af13d156001600051141716610e69576390b8ec186000526004601cfd5b604052505050565b80356001600160a01b0381168114610e8857600080fd5b919050565b60008060408385031215610ea057600080fd5b610ea983610e71565b946020939093013593505050565b6001600160e01b031981168114610ecd57600080fd5b50565b600060208284031215610ee257600080fd5b8135610eed81610eb7565b9392505050565b600060208284031215610f0657600080fd5b5035919050565b600060208083528351808285015260005b81811015610f3a57858101830151858201604001528201610f1e565b506000604082860101526040601f19601f8301168501019250505092915050565b60008083601f840112610f6d57600080fd5b50813567ffffffffffffffff811115610f8557600080fd5b6020830191508360208260051b8501011115610fa057600080fd5b9250929050565b60008083601f840112610fb957600080fd5b50813567ffffffffffffffff811115610fd157600080fd5b602083019150836020828501011115610fa057600080fd5b60008060008060008060008060a0898b03121561100557600080fd5b61100e89610e71565b975061101c60208a01610e71565b9650604089013567ffffffffffffffff8082111561103957600080fd5b6110458c838d01610f5b565b909850965060608b013591508082111561105e57600080fd5b61106a8c838d01610f5b565b909650945060808b013591508082111561108357600080fd5b506110908b828c01610fa7565b999c989b5096995094979396929594505050565b600080600080604085870312156110ba57600080fd5b843567ffffffffffffffff808211156110d257600080fd5b6110de88838901610f5b565b909650945060208701359150808211156110f757600080fd5b5061110487828801610f5b565b95989497509550505050565b6020808252825182820181905260009190848201906040850190845b818110156111485783518352928401929184019160010161112c565b50909695505050505050565b6000806040838503121561116757600080fd5b61117083610e71565b91506020830135801515811461118557600080fd5b809150509250929050565b600080600080606085870312156111a657600080fd5b6111af85610e71565b9350602085013567ffffffffffffffff8111156111cb57600080fd5b6111d787828801610f5b565b90945092506111ea905060408601610e71565b905092959194509250565b6000806040838503121561120857600080fd5b61121183610e71565b915061121f60208401610e71565b90509250929050565b60008060008060008060a0878903121561124157600080fd5b61124a87610e71565b955061125860208801610e71565b94506040870135935060608701359250608087013567ffffffffffffffff81111561128257600080fd5b61128e89828a01610fa7565b979a9699509497509295939492505050565b634e487b7160e01b600052603260045260246000fd5b634e487b7160e01b600052601160045260246000fd5b81810381811115610436576104366112b6565b80820180821115610436576104366112b6565b81835260006001600160fb1b0383111561130b57600080fd5b8260051b80836020870137939093016020019392505050565b6040815260006113386040830186886112f2565b828103602084015261134b8185876112f2565b979650505050505050565b81835281816020850137506000828201602090810191909152601f909101601f19169091010190565b6001600160a01b0389811682528816602082015260a0604082018190526000906113ac908301888a6112f2565b82810360608401526113bf8187896112f2565b905082810360808401526113d4818587611356565b9b9a5050505050505050505050565b6000602082840312156113f557600080fd5b8151610eed81610eb7565b634e487b7160e01b600052604160045260246000fd5b60006020828403121561142857600080fd5b610eed82610e71565b8183526000602080850194508260005b8581101561146d576001600160a01b0361145a83610e71565b1687529582019590820190600101611441565b509495945050505050565b600081518084526020808501945080840160005b8381101561146d57815163ffffffff168752958201959082019060010161148c565b600060018060a01b03808916835260a060208401526114d160a08401888a611431565b83810360408501526114e38188611478565b63ffffffff969096166060850152509290921660809091015250949350505050565b60006020828403121561151757600080fd5b5051919050565b600060018060a01b03808a168352808916602084015260c0604084015261154960c08401888a611431565b838103606085015261155b8188611478565b63ffffffff969096166080850152509290921660a0909101525095945050505050565b6001600160a01b03878116825286166020820152604081018590526060810184905260a0608082018190526000906115b99083018486611356565b9897505050505050505056fea264697066735822122014490f3df7e0ce671d804a9a4da83605f0109e4cd833b5794327f41ce21e8c7d64736f6c63430008110033a2646970667358221220e7f4a214a89a4fc539d071f4326db1c45486d0b07ab4bd4e736b76714937d50b64736f6c6343000811003360c060405234801561001057600080fd5b50604051611bad380380611bad83398101604081905261002f91610044565b6001600160a01b03166080523360a052610074565b60006020828403121561005657600080fd5b81516001600160a01b038116811461006d57600080fd5b9392505050565b60805160a051611aff6100ae6000396000610796015260008181610172015281816109db01528181610b080152610f3a0152611aff6000f3fe608060405234801561001057600080fd5b506004361061010a5760003560e01c8063902d55a5116100a2578063b98ebf5e11610071578063b98ebf5e14610266578063d3561ecd14610270578063dbf32be514610283578063e985e9c5146102af578063f242432a146102dd57600080fd5b8063902d55a514610224578063a12df0e71461022d578063a22cb46514610240578063a52015681461025357600080fd5b80632eb2c2d6116100de5780632eb2c2d6146101e55780633f26479e146101fa5780634e1273f41461020457806383c9ff311461022457600080fd5b8062fdd58e1461010f57806301ffc9a71461014a5780630e769b2b1461016d5780630e89341c146101ac575b600080fd5b61013761011d3660046111a2565b600060208181529281526040808220909352908152205481565b6040519081526020015b60405180910390f35b61015d6101583660046111e4565b6102f0565b6040519015158152602001610141565b6101947f000000000000000000000000000000000000000000000000000000000000000081565b6040516001600160a01b039091168152602001610141565b6101d86101ba366004611208565b5060408051808201909152600381526275726960e81b602082015290565b6040516101419190611267565b6101f86101f3366004611308565b610342565b005b610137620f424081565b6102176102123660046113c7565b6105ea565b6040516101419190611433565b6101376103e881565b600254610194906001600160a01b031681565b6101f861024e366004611477565b61071f565b6101f86102613660046114ce565b61078b565b610137620186a081565b6101f861027e36600461154f565b6108d0565b60025461029a90600160a01b900463ffffffff1681565b60405163ffffffff9091168152602001610141565b61015d6102bd3660046115b7565b600160209081526000928352604080842090915290825290205460ff1681565b6101f86102eb3660046115e5565b610b8e565b60006301ffc9a760e01b6001600160e01b0319831614806103215750636cdb3d1360e11b6001600160e01b03198316145b8061033c57506303a24d0760e21b6001600160e01b03198316145b92915050565b8483146103885760405162461bcd60e51b815260206004820152600f60248201526e0988a9c8ea890be9a92a69a82a8869608b1b60448201526064015b60405180910390fd5b336001600160a01b03891614806103c257506001600160a01b038816600090815260016020908152604080832033845290915290205460ff165b6103ff5760405162461bcd60e51b815260206004820152600e60248201526d1393d517d055551213d49256915160921b604482015260640161037f565b60008060005b878110156104ba5788888281811061041f5761041f611661565b90506020020135925086868281811061043a5761043a611661565b6001600160a01b038e166000908152602081815260408083208984528252822080549390910294909401359550859392509061047790849061168d565b90915550506001600160a01b038a16600090815260208181526040808320868452909152812080548492906104ad9084906116a0565b9091555050600101610405565b50886001600160a01b03168a6001600160a01b0316336001600160a01b03167f4a39dc06d4c0dbc64b70af90fd698a233a518aa5d07e595d983b8c0526c8f7fb8b8b8b8b60405161050e94939291906116e5565b60405180910390a46001600160a01b0389163b156105b55760405163bc197c8160e01b808252906001600160a01b038b169063bc197c81906105629033908f908e908e908e908e908e908e90600401611740565b6020604051808303816000875af1158015610581573d6000803e3d6000fd5b505050506040513d601f19601f820116820180604052508101906105a591906117a4565b6001600160e01b031916146105c2565b6001600160a01b03891615155b6105de5760405162461bcd60e51b815260040161037f906117c1565b50505050505050505050565b606083821461062d5760405162461bcd60e51b815260206004820152600f60248201526e0988a9c8ea890be9a92a69a82a8869608b1b604482015260640161037f565b8367ffffffffffffffff811115610646576106466117eb565b60405190808252806020026020018201604052801561066f578160200160208202803683370190505b50905060005b848110156107165760008087878481811061069257610692611661565b90506020020160208101906106a79190611801565b6001600160a01b03166001600160a01b0316815260200190815260200160002060008585848181106106db576106db611661565b9050602002013581526020019081526020016000205482828151811061070357610703611661565b6020908102919091010152600101610675565b50949350505050565b3360008181526001602090815260408083206001600160a01b03871680855290835292819020805460ff191686151590811790915590519081529192917f17307eab39ab6107e8899845ad3d59bd9653f200f220920489ca2b5937696c31910160405180910390a35050565b336001600160a01b037f000000000000000000000000000000000000000000000000000000000000000016146107d3576040516282b42960e81b815260040160405180910390fd5b8382146107fd576040516335389da760e11b8152600481018590526024810183905260440161037f565b60006108098484610d80565b90506103e88163ffffffff161461083b57604051638692155560e01b815263ffffffff8216600482015260240161037f565b5061084581610dd0565b8360005b818110156108c7576108bf87878381811061086657610866611661565b905060200201602081019061087b9190611801565b600087878581811061088f5761088f611661565b90506020020160208101906108a4919061181e565b63ffffffff1660405180602001604052806000815250610fde565b600101610849565b50505050505050565b8160008167ffffffffffffffff8111156108ec576108ec6117eb565b604051908082528060200260200182016040528015610915578160200160208202803683370190505b50905060005b828110156109a45761097586868381811061093857610938611661565b905060200201602081019061094d9190611801565b6001600160a01b03166000908152602081815260408083208380529091529020546103e80290565b82828151811061098757610987611661565b63ffffffff9092166020928302919091019091015260010161091b565b506001600160a01b038616610a69576002546109c9906001600160a01b031647611126565b6002546040516352f1c84f60e11b81527f00000000000000000000000000000000000000000000000000000000000000006001600160a01b039081169263a5e3909e92610a32928216918a918a918891600160a01b90910463ffffffff16908b906004016118b8565b600060405180830381600087803b158015610a4c57600080fd5b505af1158015610a60573d6000803e3d6000fd5b50505050610b86565b6002546040516370a0823160e01b8152306004820152610aee916001600160a01b0390811691908916906370a0823190602401602060405180830381865afa158015610ab9573d6000803e3d6000fd5b505050506040513d601f19601f82011682018060405250810190610add919061190f565b6001600160a01b0389169190611146565b6002546040516377b1e4e960e01b81526001600160a01b037f00000000000000000000000000000000000000000000000000000000000000008116926377b1e4e992610b58928216918b918b918b91899163ffffffff600160a01b90910416908c90600401611928565b600060405180830381600087803b158015610b7257600080fd5b505af11580156105de573d6000803e3d6000fd5b505050505050565b336001600160a01b0387161480610bc857506001600160a01b038616600090815260016020908152604080832033845290915290205460ff165b610c055760405162461bcd60e51b815260206004820152600e60248201526d1393d517d055551213d49256915160921b604482015260640161037f565b6001600160a01b03861660009081526020818152604080832087845290915281208054859290610c3690849061168d565b90915550506001600160a01b03851660009081526020818152604080832087845290915281208054859290610c6c9084906116a0565b909155505060408051858152602081018590526001600160a01b03808816929089169133917fc3d58168c5ae7397731d063d5bbf3d657854427343f4c083240f7aacaa2d0f62910160405180910390a46001600160a01b0385163b15610d575760405163f23a6e6160e01b808252906001600160a01b0387169063f23a6e6190610d049033908b908a908a908a908a90600401611988565b6020604051808303816000875af1158015610d23573d6000803e3d6000fd5b505050506040513d601f19601f82011682018060405250810190610d4791906117a4565b6001600160e01b03191614610d64565b6001600160a01b03851615155b610b865760405162461bcd60e51b815260040161037f906117c1565b600081815b81811015610dc857848482818110610d9f57610d9f611661565b9050602002016020810190610db4919061181e565b610dbe90846119cf565b9250600101610d85565b505092915050565b620186a08163ffffffff161115610e0257604051634a1fd52d60e01b815263ffffffff8216600482015260240161037f565b6002805463ffffffff60a01b1916600160a01b63ffffffff841602178155604080518281526060810182526000929091602083019080368337019050509050600081600081518110610e5657610e56611661565b60200260200101906001600160a01b031690816001600160a01b031681525050600181600181518110610e8b57610e8b611661565b6001600160a01b039290921660209283029190910182015260408051600280825260608201835260009391929091830190803683370190505090506207a12081600081518110610edd57610edd611661565b602002602001019063ffffffff16908163ffffffff16815250506207a12081600181518110610f0e57610f0e611661565b63ffffffff90921660209283029190910190910152604051633b00fbc160e11b81526001600160a01b037f00000000000000000000000000000000000000000000000000000000000000001690637601f78290610f76908590859060009030906004016119f3565b6020604051808303816000875af1158015610f95573d6000803e3d6000fd5b505050506040513d601f19601f82011682018060405250810190610fb99190611a72565b600280546001600160a01b0319166001600160a01b0392909216919091179055505050565b6001600160a01b0384166000908152602081815260408083208684529091528120805484929061100f9084906116a0565b909155505060408051848152602081018490526001600160a01b0386169160009133917fc3d58168c5ae7397731d063d5bbf3d657854427343f4c083240f7aacaa2d0f62910160405180910390a46001600160a01b0384163b156110f75760405163f23a6e6160e01b808252906001600160a01b0386169063f23a6e61906110a4903390600090899089908990600401611a8f565b6020604051808303816000875af11580156110c3573d6000803e3d6000fd5b505050506040513d601f19601f820116820180604052508101906110e791906117a4565b6001600160e01b03191614611104565b6001600160a01b03841615155b6111205760405162461bcd60e51b815260040161037f906117c1565b50505050565b60008060008084865af16111425763b12d13eb6000526004601cfd5b5050565b60405163a9059cbb6000528260205281604052602060006044601c6000885af13d156001600051141716611182576390b8ec186000526004601cfd5b604052505050565b6001600160a01b038116811461119f57600080fd5b50565b600080604083850312156111b557600080fd5b82356111c08161118a565b946020939093013593505050565b6001600160e01b03198116811461119f57600080fd5b6000602082840312156111f657600080fd5b8135611201816111ce565b9392505050565b60006020828403121561121a57600080fd5b5035919050565b6000815180845260005b818110156112475760208185018101518683018201520161122b565b506000602082860101526020601f19601f83011685010191505092915050565b6020815260006112016020830184611221565b60008083601f84011261128c57600080fd5b50813567ffffffffffffffff8111156112a457600080fd5b6020830191508360208260051b85010111156112bf57600080fd5b9250929050565b60008083601f8401126112d857600080fd5b50813567ffffffffffffffff8111156112f057600080fd5b6020830191508360208285010111156112bf57600080fd5b60008060008060008060008060a0898b03121561132457600080fd5b883561132f8161118a565b9750602089013561133f8161118a565b9650604089013567ffffffffffffffff8082111561135c57600080fd5b6113688c838d0161127a565b909850965060608b013591508082111561138157600080fd5b61138d8c838d0161127a565b909650945060808b01359150808211156113a657600080fd5b506113b38b828c016112c6565b999c989b5096995094979396929594505050565b600080600080604085870312156113dd57600080fd5b843567ffffffffffffffff808211156113f557600080fd5b6114018883890161127a565b9096509450602087013591508082111561141a57600080fd5b506114278782880161127a565b95989497509550505050565b6020808252825182820181905260009190848201906040850190845b8181101561146b5783518352928401929184019160010161144f565b50909695505050505050565b6000806040838503121561148a57600080fd5b82356114958161118a565b9150602083013580151581146114aa57600080fd5b809150509250929050565b803563ffffffff811681146114c957600080fd5b919050565b6000806000806000606086880312156114e657600080fd5b853567ffffffffffffffff808211156114fe57600080fd5b61150a89838a0161127a565b9097509550602088013591508082111561152357600080fd5b506115308882890161127a565b90945092506115439050604087016114b5565b90509295509295909350565b6000806000806060858703121561156557600080fd5b84356115708161118a565b9350602085013567ffffffffffffffff81111561158c57600080fd5b6115988782880161127a565b90945092505060408501356115ac8161118a565b939692955090935050565b600080604083850312156115ca57600080fd5b82356115d58161118a565b915060208301356114aa8161118a565b60008060008060008060a087890312156115fe57600080fd5b86356116098161118a565b955060208701356116198161118a565b94506040870135935060608701359250608087013567ffffffffffffffff81111561164357600080fd5b61164f89828a016112c6565b979a9699509497509295939492505050565b634e487b7160e01b600052603260045260246000fd5b634e487b7160e01b600052601160045260246000fd5b8181038181111561033c5761033c611677565b8082018082111561033c5761033c611677565b81835260006001600160fb1b038311156116cc57600080fd5b8260051b80836020870137939093016020019392505050565b6040815260006116f96040830186886116b3565b828103602084015261170c8185876116b3565b979650505050505050565b81835281816020850137506000828201602090810191909152601f909101601f19169091010190565b6001600160a01b0389811682528816602082015260a06040820181905260009061176d908301888a6116b3565b82810360608401526117808187896116b3565b90508281036080840152611795818587611717565b9b9a5050505050505050505050565b6000602082840312156117b657600080fd5b8151611201816111ce565b60208082526010908201526f155394d0519157d49150d2541251539560821b604082015260600190565b634e487b7160e01b600052604160045260246000fd5b60006020828403121561181357600080fd5b81356112018161118a565b60006020828403121561183057600080fd5b611201826114b5565b8183526000602080850194508260005b8581101561187757813561185c8161118a565b6001600160a01b031687529582019590820190600101611849565b509495945050505050565b600081518084526020808501945080840160005b8381101561187757815163ffffffff1687529582019590820190600101611896565b600060018060a01b03808916835260a060208401526118db60a08401888a611839565b83810360408501526118ed8188611882565b63ffffffff969096166060850152509290921660809091015250949350505050565b60006020828403121561192157600080fd5b5051919050565b600060018060a01b03808a168352808916602084015260c0604084015261195360c08401888a611839565b83810360608501526119658188611882565b63ffffffff969096166080850152509290921660a0909101525095945050505050565b6001600160a01b03878116825286166020820152604081018590526060810184905260a0608082018190526000906119c39083018486611717565b98975050505050505050565b63ffffffff8181168382160190808211156119ec576119ec611677565b5092915050565b6080808252855190820181905260009060209060a0840190828901845b82811015611a355781516001600160a01b031684529284019290840190600101611a10565b50505083810382850152611a498188611882565b63ffffffff9690961660408501525050506001600160a01b039190911660609091015292915050565b600060208284031215611a8457600080fd5b81516112018161118a565b6001600160a01b03868116825285166020820152604081018490526060810183905260a06080820181905260009061170c9083018461122156fea26469706673582212203eb66b9cab337f6f7e2fdbacc64e51a95d1cb70be355753e2b2fd2da55e4ca2164736f6c63430008110033",
    "linkReferences": {}
  },
  "methodIdentifiers": {
    "createLiquidSplit(address[],uint32[],uint32)": "a4aa1aad",
    "createLiquidSplitClone(address[],uint32[],uint32)": "37f2d622",
    "ls1155CloneImpl()": "53b2d556",
    "splitMain()": "0e769b2b"
  },
  "id": 18
}