{
  "abi": [
    {
      "inputs": [],
      "stateMutability": "nonpayable",
      "type": "constructor"
    },
    {
      "inputs": [],
      "name": "InvalidTokenRecovery_InvalidRecipient",
      "type": "error"
    },
    {
      "inputs": [],
      "name": "InvalidTokenRecovery_WaterfallToken",
      "type": "error"
    },
    {
      "anonymous": false,
      "inputs": [
        {
          "indexed": false,
          "internalType": "uint256",
          "name": "amount",
          "type": "uint256"
        }
      ],
      "name": "ReceiveETH",
      "type": "event"
    },
    {
      "anonymous": false,
      "inputs": [
        {
          "indexed": false,
          "internalType": "address",
          "name": "nonWaterfallToken",
          "type": "address"
        },
        {
          "indexed": false,
          "internalType": "address",
          "name": "recipient",
          "type": "address"
        },
        {
          "indexed": false,
          "internalType": "uint256",
          "name": "amount",
          "type": "uint256"
        }
      ],
      "name": "RecoverNonWaterfallFunds",
      "type": "event"
    },
    {
      "anonymous": false,
      "inputs": [
        {
          "indexed": false,
          "internalType": "address[]",
          "name": "recipients",
          "type": "address[]"
        },
        {
          "indexed": false,
          "internalType": "uint256[]",
          "name": "payouts",
          "type": "uint256[]"
        }
      ],
      "name": "WaterfallFunds",
      "type": "event"
    },
    {
      "inputs": [],
      "name": "distributedFunds",
      "outputs": [
        {
          "internalType": "uint256",
          "name": "",
          "type": "uint256"
        }
      ],
      "stateMutability": "view",
      "type": "function"
    },
    {
      "inputs": [],
      "name": "getTranches",
      "outputs": [
        {
          "internalType": "address[]",
          "name": "recipients",
          "type": "address[]"
        },
        {
          "internalType": "uint256[]",
          "name": "thresholds",
          "type": "uint256[]"
        }
      ],
      "stateMutability": "pure",
      "type": "function"
    },
    {
      "inputs": [
        {
          "internalType": "address",
          "name": "nonWaterfallToken",
          "type": "address"
        },
        {
          "internalType": "address",
          "name": "recipient",
          "type": "address"
        }
      ],
      "name": "recoverNonWaterfallFunds",
      "outputs": [],
      "stateMutability": "payable",
      "type": "function"
    },
    {
      "inputs": [],
      "name": "token",
      "outputs": [
        {
          "internalType": "address",
          "name": "",
          "type": "address"
        }
      ],
      "stateMutability": "pure",
      "type": "function"
    },
    {
      "inputs": [],
      "name": "waterfallFunds",
      "outputs": [],
      "stateMutability": "payable",
      "type": "function"
    }
  ],
  "bytecode": {
    "object": "0x608060405234801561001057600080fd5b50610a2b806100206000396000f3fe60806040526004361061004a5760003560e01c806352b6eaa01461004f5780635fb3a113146100645780636e1da3ee1461006c578063dc2f511b14610095578063fc0c546a146100b8575b600080fd5b61006261005d3660046108f9565b6100e2565b005b61006261029c565b34801561007857600080fd5b5061008260005481565b6040519081526020015b60405180910390f35b3480156100a157600080fd5b506100aa61067d565b60405161008c92919061092c565b3480156100c457600080fd5b506040513660011981013560f01c90033560601c815260200161008c565b3660011981013560f01c90033560601c6001600160a01b0383160361011a57604051635528185160e11b815260040160405180910390fd5b600061012461067d565b5090506000806101326107ee565b905060005b8181101561018257846001600160a01b031684828151811061015b5761015b6109b0565b60200260200101516001600160a01b03160361017a5760019250610182565b600101610137565b50816101a1576040516332fe787760e21b815260040160405180910390fd5b60006001600160a01b0386166101cb5750476101c66001600160a01b03861682610804565b610249565b6040516370a0823160e01b81523060048201526001600160a01b038716906370a0823190602401602060405180830381865afa15801561020f573d6000803e3d6000fd5b505050506040513d601f19601f8201168201806040525081019061023391906109c6565b90506102496001600160a01b038716868361085f565b604080516001600160a01b038089168252871660208201529081018290527f80748ca17d5f664f0ed41aa81748479a609da41a9e0c8945933ea89e77fe97619060600160405180910390a1505050505050565b600080543660011981013560f01c90033560601c918215610324576040516370a0823160e01b81523060048201526001600160a01b038416906370a0823190602401602060405180830381865afa1580156102fb573d6000803e3d6000fd5b505050506040513d601f19601f8201168201806040525081019061031f91906109c6565b610326565b475b8201905060008061033561067d565b91509150600080600060016103486107ee565b0390505b808310156103805786848481518110610367576103676109b0565b602002602001015110156103805782600101925061034c565b8291505b808210156103b8578584838151811061039f5761039f6109b0565b602002602001015110156103b857816001019150610384565b5060018282030160008167ffffffffffffffff8111156103da576103da6109df565b604051908082528060200260200182016040528015610403578160200160208202803683370190505b50905060008267ffffffffffffffff811115610421576104216109df565b60405190808252806020026020018201604052801561044a578160200160208202803683370190505b509050886000808060001987015b808210156104fc57818a0193508b8481518110610477576104776109b0565b6020026020010151878381518110610491576104916109b0565b60200260200101906001600160a01b031690816001600160a01b0316815250508a84815181106104c3576104c36109b0565b602002602001015192508483038683815181106104e2576104e26109b0565b602002602001018181525050829450816001019150610458565b8b828b0181518110610510576105106109b0565b602002602001015187838151811061052a5761052a6109b0565b60200260200101906001600160a01b031690816001600160a01b031681525050848d0386838151811061055f5761055f6109b0565b602090810291909101015250505060008a81559150505b83811015610637576001600160a01b038b166105df576105da8282815181106105a1576105a16109b0565b60200260200101518483815181106105bb576105bb6109b0565b60200260200101516001600160a01b031661080490919063ffffffff16565b61062f565b61062f8382815181106105f4576105f46109b0565b602002602001015183838151811061060e5761060e6109b0565b60200260200101518d6001600160a01b031661085f9092919063ffffffff16565b600101610576565b507f77777e3c86b836658b4e0fc9932be385d63a81ac06e304ae2d43f080aeb15b0a828260405161066992919061092c565b60405180910390a150505050505050505050565b606080600061068a6107ee565b905060001981018167ffffffffffffffff8111156106aa576106aa6109df565b6040519080825280602002602001820160405280156106d3578160200160208202803683370190505b5093508067ffffffffffffffff8111156106ef576106ef6109df565b604051908082528060200260200182016040528015610718578160200160208202803683370190505b5092506000805b8282101561079f573660011981013560f01c90036020830201601c0135905080868381518110610751576107516109b0565b60200260200101906001600160a01b031690816001600160a01b03168152505060a081901c858381518110610788576107886109b0565b60200260200101818152505081600101915061071f565b3660011981013560f01c90036020830201601c01358683815181106107c6576107c66109b0565b60200260200101906001600160a01b031690816001600160a01b031681525050505050509091565b3660011981013560f01c90036014013560c01c90565b600080600080600085875af190508061085a5760405162461bcd60e51b815260206004820152601360248201527211551217d514905394d1915497d19052531151606a1b60448201526064015b60405180910390fd5b505050565b600060405163a9059cbb60e01b8152836004820152826024820152602060006044836000895af13d15601f3d11600160005114161716915050806108d75760405162461bcd60e51b815260206004820152600f60248201526e1514905394d1915497d19052531151608a1b6044820152606401610851565b50505050565b80356001600160a01b03811681146108f457600080fd5b919050565b6000806040838503121561090c57600080fd5b610915836108dd565b9150610923602084016108dd565b90509250929050565b604080825283519082018190526000906020906060840190828701845b8281101561096e5781516001600160a01b031684529284019290840190600101610949565b5050508381038285015284518082528583019183019060005b818110156109a357835183529284019291840191600101610987565b5090979650505050505050565b634e487b7160e01b600052603260045260246000fd5b6000602082840312156109d857600080fd5b5051919050565b634e487b7160e01b600052604160045260246000fdfea26469706673582212209e52273653b421364a23adfe1d4eba668250d2cc5ed77334582a7305645ca70564736f6c634300080f0033",
    "linkReferences": {}
  },
  "methodIdentifiers": {
    "distributedFunds()": "6e1da3ee",
    "getTranches()": "dc2f511b",
    "recoverNonWaterfallFunds(address,address)": "52b6eaa0",
    "token()": "fc0c546a",
    "waterfallFunds()": "5fb3a113"
  },
  "id": 11
}