{
  "abi": [
    {
      "inputs": [],
      "stateMutability": "nonpayable",
      "type": "constructor"
    },
    {
      "inputs": [],
      "name": "InvalidDistribution_TooLarge",
      "type": "error"
    },
    {
      "inputs": [],
      "name": "InvalidTokenRecovery_InvalidRecipient",
      "type": "error"
    },
    {
      "inputs": [],
      "name": "InvalidTokenRecovery_WaterfallToken",
      "type": "error"
    },
    {
      "anonymous": false,
      "inputs": [
        {
          "indexed": false,
          "internalType": "uint256",
          "name": "amount",
          "type": "uint256"
        }
      ],
      "name": "ReceiveETH",
      "type": "event"
    },
    {
      "anonymous": false,
      "inputs": [
        {
          "indexed": false,
          "internalType": "address",
          "name": "nonWaterfallToken",
          "type": "address"
        },
        {
          "indexed": false,
          "internalType": "address",
          "name": "recipient",
          "type": "address"
        },
        {
          "indexed": false,
          "internalType": "uint256",
          "name": "amount",
          "type": "uint256"
        }
      ],
      "name": "RecoverNonWaterfallFunds",
      "type": "event"
    },
    {
      "anonymous": false,
      "inputs": [
        {
          "indexed": false,
          "internalType": "address[]",
          "name": "recipients",
          "type": "address[]"
        },
        {
          "indexed": false,
          "internalType": "uint256[]",
          "name": "payouts",
          "type": "uint256[]"
        },
        {
          "indexed": false,
          "internalType": "uint256",
          "name": "pullFlowFlag",
          "type": "uint256"
        }
      ],
      "name": "WaterfallFunds",
      "type": "event"
    },
    {
      "anonymous": false,
      "inputs": [
        {
          "indexed": false,
          "internalType": "address",
          "name": "account",
          "type": "address"
        },
        {
          "indexed": false,
          "internalType": "uint256",
          "name": "amount",
          "type": "uint256"
        }
      ],
      "name": "Withdrawal",
      "type": "event"
    },
    {
      "inputs": [],
      "name": "distributedFunds",
      "outputs": [
        {
          "internalType": "uint128",
          "name": "",
          "type": "uint128"
        }
      ],
      "stateMutability": "view",
      "type": "function"
    },
    {
      "inputs": [],
      "name": "fundsPendingWithdrawal",
      "outputs": [
        {
          "internalType": "uint128",
          "name": "",
          "type": "uint128"
        }
      ],
      "stateMutability": "view",
      "type": "function"
    },
    {
      "inputs": [
        {
          "internalType": "address",
          "name": "account",
          "type": "address"
        }
      ],
      "name": "getPullBalance",
      "outputs": [
        {
          "internalType": "uint256",
          "name": "",
          "type": "uint256"
        }
      ],
      "stateMutability": "view",
      "type": "function"
    },
    {
      "inputs": [],
      "name": "getTranches",
      "outputs": [
        {
          "internalType": "address[]",
          "name": "recipients",
          "type": "address[]"
        },
        {
          "internalType": "uint256[]",
          "name": "thresholds",
          "type": "uint256[]"
        }
      ],
      "stateMutability": "pure",
      "type": "function"
    },
    {
      "inputs": [],
      "name": "nonWaterfallRecipient",
      "outputs": [
        {
          "internalType": "address",
          "name": "",
          "type": "address"
        }
      ],
      "stateMutability": "pure",
      "type": "function"
    },
    {
      "inputs": [
        {
          "internalType": "address",
          "name": "nonWaterfallToken",
          "type": "address"
        },
        {
          "internalType": "address",
          "name": "recipient",
          "type": "address"
        }
      ],
      "name": "recoverNonWaterfallFunds",
      "outputs": [],
      "stateMutability": "payable",
      "type": "function"
    },
    {
      "inputs": [],
      "name": "token",
      "outputs": [
        {
          "internalType": "address",
          "name": "",
          "type": "address"
        }
      ],
      "stateMutability": "pure",
      "type": "function"
    },
    {
      "inputs": [],
      "name": "waterfallFunds",
      "outputs": [],
      "stateMutability": "payable",
      "type": "function"
    },
    {
      "inputs": [],
      "name": "waterfallFundsPull",
      "outputs": [],
      "stateMutability": "payable",
      "type": "function"
    },
    {
      "inputs": [
        {
          "internalType": "address",
          "name": "account",
          "type": "address"
        }
      ],
      "name": "withdraw",
      "outputs": [],
      "stateMutability": "nonpayable",
      "type": "function"
    }
  ],
  "bytecode": {
    "object": "0x608060405234801561001057600080fd5b50610dcc806100206000396000f3fe6080604052600436106100915760003560e01c80636e1da3ee116100595780636e1da3ee1461015b578063dc2f511b1461017b578063dd71283e1461019e578063e8afa87d146101a6578063fc0c546a146101df57600080fd5b806303615ba314610096578063043edae8146100df57806351cff8d91461011e57806352b6eaa0146101405780635fb3a11314610153575b600080fd5b3480156100a257600080fd5b506100cc6100b1366004610c03565b6001600160a01b031660009081526001602052604090205490565b6040519081526020015b60405180910390f35b3480156100eb57600080fd5b5060005461010690600160801b90046001600160801b031681565b6040516001600160801b0390911681526020016100d6565b34801561012a57600080fd5b5061013e610139366004610c03565b6101f4565b005b61013e61014e366004610c25565b6102b7565b61013e6104c2565b34801561016757600080fd5b50600054610106906001600160801b031681565b34801561018757600080fd5b506101906104ce565b6040516100d6929190610ccc565b61013e610627565b3480156101b257600080fd5b503660011981013560f01c90036014013560601c5b6040516001600160a01b0390911681526020016100d6565b3480156101eb57600080fd5b506101c7610631565b60006101fe610631565b6001600160a01b038084166000908152600160205260408120805482546001600160801b03600160801b80830482168490038216029116178355919055919250821661025c576102576001600160a01b03841682610644565b610270565b6102706001600160a01b0383168483610664565b604080516001600160a01b0385168152602081018390527f7fcf532c15f0a6db0bd6d0e038bea71d30d808c7d98cb3bf7268a95bf5081b65910160405180910390a1505050565b6102bf610631565b6001600160a01b0316826001600160a01b0316036102f057604051635528185160e11b815260040160405180910390fd5b3660011981013560f01c90036014013560601c806103975760006103126104ce565b5090506000806103206106a8565b905060005b8181101561037057856001600160a01b031684828151811061034957610349610cfa565b60200260200101516001600160a01b0316036103685760019250610370565b600101610325565b508161038f576040516332fe787760e21b815260040160405180910390fd5b5050506103c9565b806001600160a01b0316826001600160a01b0316146103c9576040516332fe787760e21b815260040160405180910390fd5b60006001600160a01b0384166103f35750476103ee6001600160a01b03841682610644565b610471565b6040516370a0823160e01b81523060048201526001600160a01b038516906370a0823190602401602060405180830381865afa158015610437573d6000803e3d6000fd5b505050506040513d601f19601f8201168201806040525081019061045b9190610d10565b90506104716001600160a01b0385168483610664565b604080516001600160a01b038087168252851660208201529081018290527f80748ca17d5f664f0ed41aa81748479a609da41a9e0c8945933ea89e77fe97619060600160405180910390a150505050565b6104cc60006106be565b565b60608060006104db6106a8565b905060001981018167ffffffffffffffff8111156104fb576104fb610d29565b604051908082528060200260200182016040528015610524578160200160208202803683370190505b5093508067ffffffffffffffff81111561054057610540610d29565b604051908082528060200260200182016040528015610569578160200160208202803683370190505b5092506000805b828210156105e45761058182610bc9565b90508086838151811061059657610596610cfa565b60200260200101906001600160a01b031690816001600160a01b03168152505060a081901c8583815181106105cd576105cd610cfa565b602002602001018181525050816001019150610570565b6105ed82610bc9565b8683815181106105ff576105ff610cfa565b60200260200101906001600160a01b031690816001600160a01b031681525050505050509091565b6104cc60016106be565b3660011981013560f01c90033560601c90565b60008060008084865af16106605763b12d13eb6000526004601cfd5b5050565b60405163a9059cbb6000528260205281604052602060006044601c6000885af13d1560016000511417166106a0576390b8ec186000526004601cfd5b604052505050565b3660011981013560f01c90036028013560c01c90565b60006106c8610631565b600080549192506001600160801b0380831692600160801b9004166001600160a01b0384161561075f576040516370a0823160e01b81523060048201526001600160a01b038516906370a0823190602401602060405180830381865afa158015610736573d6000803e3d6000fd5b505050506040513d601f19601f8201168201806040525081019061075a9190610d10565b610761565b475b8184030191506000806107726104ce565b91509150600080600060016107856106a8565b0390505b808310156107bc57878484815181106107a4576107a4610cfa565b6020026020010151116107bc57826001019250610789565b8291505b808210156107f457868483815181106107db576107db610cfa565b602002602001015110156107f4578160010191506107c0565b5060018282030160008167ffffffffffffffff81111561081657610816610d29565b60405190808252806020026020018201604052801561083f578160200160208202803683370190505b50905060008267ffffffffffffffff81111561085d5761085d610d29565b604051908082528060200260200182016040528015610886578160200160208202803683370190505b509050896000808060001987015b8082101561093857818a0193508b84815181106108b3576108b3610cfa565b60200260200101518783815181106108cd576108cd610cfa565b60200260200101906001600160a01b031690816001600160a01b0316815250508a84815181106108ff576108ff610cfa565b6020026020010151925084830386838151811061091e5761091e610cfa565b602002602001018181525050829450816001019150610894565b8b828b018151811061094c5761094c610cfa565b602002602001015187838151811061096657610966610cfa565b60200260200101906001600160a01b031690816001600160a01b031681525050848e0386838151811061099b5761099b610cfa565b60209081029190910101526001600160801b038e11156109ce576040516328165e5960e11b815260040160405180910390fd5b5050600080546fffffffffffffffffffffffffffffffff19166001600160801b038e16178155925050505b83811015610b5c5760018d03610aa357818181518110610a1b57610a1b610cfa565b602002602001015160016000858481518110610a3957610a39610cfa565b60200260200101516001600160a01b03166001600160a01b031681526020019081526020016000206000828254610a709190610d3f565b92505081905550818181518110610a8957610a89610cfa565b602002602001015189610a9c9190610d3f565b9850610b54565b6001600160a01b038c16610b0457610aff828281518110610ac657610ac6610cfa565b6020026020010151848381518110610ae057610ae0610cfa565b60200260200101516001600160a01b031661064490919063ffffffff16565b610b54565b610b54838281518110610b1957610b19610cfa565b6020026020010151838381518110610b3357610b33610cfa565b60200260200101518e6001600160a01b03166106649092919063ffffffff16565b6001016109f9565b5060018c03610b8057600080546001600160801b03808b16600160801b0291161790555b7f6eb448389022d3f147f358f6ecfd81c15389f92b562ccf7e5bf83777bcb0328082828e604051610bb393929190610d60565b60405180910390a1505050505050505050505050565b60003660011981013560f01c90036020830201603001355b92915050565b80356001600160a01b0381168114610bfe57600080fd5b919050565b600060208284031215610c1557600080fd5b610c1e82610be7565b9392505050565b60008060408385031215610c3857600080fd5b610c4183610be7565b9150610c4f60208401610be7565b90509250929050565b600081518084526020808501945080840160005b83811015610c915781516001600160a01b031687529582019590820190600101610c6c565b509495945050505050565b600081518084526020808501945080840160005b83811015610c9157815187529582019590820190600101610cb0565b604081526000610cdf6040830185610c58565b8281036020840152610cf18185610c9c565b95945050505050565b634e487b7160e01b600052603260045260246000fd5b600060208284031215610d2257600080fd5b5051919050565b634e487b7160e01b600052604160045260246000fd5b80820180821115610be157634e487b7160e01b600052601160045260246000fd5b606081526000610d736060830186610c58565b8281036020840152610d858186610c9c565b91505082604083015294935050505056fea264697066735822122047bbcbe9d6f122bb260b605d3b01f600f89f20d9038c5f7f5098106efe0f933264736f6c63430008110033",
    "linkReferences": {}
  },
  "methodIdentifiers": {
    "distributedFunds()": "6e1da3ee",
    "fundsPendingWithdrawal()": "043edae8",
    "getPullBalance(address)": "03615ba3",
    "getTranches()": "dc2f511b",
    "nonWaterfallRecipient()": "e8afa87d",
    "recoverNonWaterfallFunds(address,address)": "52b6eaa0",
    "token()": "fc0c546a",
    "waterfallFunds()": "5fb3a113",
    "waterfallFundsPull()": "dd71283e",
    "withdraw(address)": "51cff8d9"
  },
  "id": 12
}